:020000040800F2
:10000000583400208D0200086F510008993800080C
:100010006D51000821190008C559000800000000B2
:10002000000000000000000000000000F5010008D2
:100030006F19000800000000390200080154000890
:10004000A7020008A7020008A7020008A7020008EC
:10005000A7020008A7020008A7020008A7020008DC
:10006000A7020008A7020008A7020008A7020008CC
:10007000A7020008A7020008A70200083919000813
:10008000A7020008A7020008A7020008A7020008AC
:10009000A7020008A7020008A7020008A70200089C
:1000A000A70200088D540008A7020008A702000854
:1000B00099540008A7020008A7020008C5380008E4
:1000C000B9380008A7020008A7020008A702000824
:1000D000A702000889590008A7020008A702000823
:1000E00071190008A7020008A702000800F002F832
:1000F00000F070F80AA090E8000C82448344AAF152
:100100000107DA4501D100F065F8AFF2090EBAE84F
:100110000F0013F0010F18BFFB1A43F0010318473B
:10012000A0950000C09500000A444FF0000C10F8A4
:10013000013B13F0070408BF10F8014B1D1108BF65
:1001400010F8015B641E05D010F8016B641E01F805
:10015000016BF9D113F0080F1EBF10F8014BAD1C55
:100160000C1B09D16D1E58BF01F801CBFAD505E073
:1001700014F8016B01F8016B6D1EF9D59142D6D3CD
:10018000704700000023002400250026103A28BFF5
:1001900078C1FBD8520728BF30C148BF0B607047F9
:1001A000662909F01680642900F0F480752900F0B2
:1001B000F180732900F09F85002070471FB500F083
:1001C0009FFD04000020002108F020FCE0601FBD1E
:1001D00010B510BD00F098FE1146FFF7EFFF05F0D7
:1001E0006BFD00F0B6FE03B4FFF7F2FF03BC00F0B6
:1001F000F9FE0000224B19680868B0E8F00F80F3A0
:100200000988BFF36F8F4FF0000080F311884EF024
:100210000D0E70470000000006480068006880F37B
:10022000088862B661B6BFF34F8FBFF36F8F00DFF0
:1002300000BF00BF08ED00E0EFF30980BFF36F8F50
:100240000F4B1A6820E9F00F106008B54FF050000E
:1002500080F31188BFF34F8FBFF36F8F06F014FD4B
:100260004FF0000080F31188BDE808401968086865
:10027000B0E8F00F80F30988BFF36F8F704700BFBD
:10028000C4000020EFF30580704700000948804754
:1002900009480047FEE7FEE7FEE7FEE7FEE7FEE768
:1002A000FEE7FEE7FEE7FEE704480549054A064B80
:1002B000704700008B540008ED000008582E002005
:1002C0005834002058300020583000200FB41CB59E
:1002D000074B06AA7B4469460090059800F0E1FCB4
:1002E0000020694600F0F0FC1CBC5DF814FB000027
:1002F000F109000070B5044685690068C10601D5A2
:10030000302600E02026C00707D070BDD4E90121C7
:1003100030469047206A401C20626D1EF6D570BDA5
:1003200070B5044685690078C00707D170BDD4E96F
:10033000012120209047206A401C20626D1EF6D5C6
:1003400070BD70B50C460546012A05D02878800698
:1003500000D5EA69002302E0012305E05B1C93421B
:1003600002D2E05C0028F9D1A869E618C01AA86199
:10037000286A184428622846FFF7BCFF04E0D5E944
:10038000012114F8010B9047B442F8D32846FFF737
:10039000C7FF70BD2DE9F04106460024106875299D
:1003A000314616A510D0AFF30080002802DA404293
:1003B00013A507E031688A0701D512A502E04907B5
:1003C00004D511A5012401E0AFF3008000210A2229
:1003D00006F1240709E0B0FBF2FCB0FBF2F302FBEC
:1003E0001C00303078541846491C0028F3D12346AD
:1003F0002A463046BDE8F04100F0E5B900000000B3
:100400002D0000002B000000200000002DE9F05F0F
:10041000894604464FF0000ADFF874B1FB44C0F887
:1004200020A02046E1688847002874D0252806D0FF
:10043000D4E901219047206A401C2062F1E70026A0
:100440005F462046E16888472028054607DB312DB6
:1004500005D2781910F8200C08B10643F1E7B0076F
:1004600001D526F00406C4F81CA00027C4F818A083
:100470002A2D09D0284605F0E4FA38B304EB8708A2
:10048000303DC8F8185019E059F8041B204604EB19
:1004900087029161E1688847012F054618D1E0691C
:1004A000002820DA26F020061DE0D8F8180000EB1E
:1004B000800005EB40003038C8F818002046E1689D
:1004C0008847054605F0BDFA0028EED1012F0AD075
:1004D0002E2D08D12046E16888477F1C0546022F53
:1004E00046F02006C4DBA069002803DA404246F04B
:1004F0000106A061F00701D026F010066C2D0BD08C
:10050000682D09D04C2D39D06A2D35D0742D35D0B9
:100510007A2D33D016E038E0E1682F462046884730
:10052000B842054609D16C2F26D04FF48060E168AF
:10053000064320468847054604E06C2F1AD04FF446
:10054000807006430DB3A5F14100192802D820356B
:1005500046F400664A462946204626604E46FFF786
:100560001FFE80B101280BD0F61D26F0070000F118
:10057000080956E74020E4E78020D8E70020D6E7C6
:1005800006F104094DE7284652E7206ABDE8F09FCE
:10059000AA91000040EA010310B59B070FD1042A7D
:1005A0000DD310C808C9121F9C42F8D020BA19BA3E
:1005B000884201D9012010BD4FF0FF3010BD1AB1A3
:1005C000D30703D0521C07E0002010BD10F8013BF8
:1005D00011F8014B1B1B07D110F8013B11F8014B1F
:1005E0001B1B01D1921EF1D1184610BD10B5431C42
:1005F00002E010F8011B71B18107FAD14FF001320E
:1006000002C88C1A8C4314EAC211F9D0C01A0A0627
:1006100003D0C01E10BDC01A10BD0A0401D0801E38
:1006200010BD0902FCD0401E10BD032A40F23080EC
:1006300010F0030C00F0158011F8013BBCF1020F23
:10064000624498BF11F801CB00F8013B38BF11F8A4
:10065000013BA2F1040298BF00F801CB38BF00F8BB
:10066000013B11F0030300F02580083AC0F0088038
:1006700051F8043B083A51F804CBA0E80810F5E71C
:10068000121D5CBF51F8043B40F8043BAFF30080FF
:10069000D20724BF11F8013B11F801CB48BF11F874
:1006A000012B24BF00F8013B00F801CB48BF00F844
:1006B000012B704710B5203AC0F00B80B1E81850FC
:1006C000203AA0E81850B1E81850A0E81850BFF43C
:1006D000F5AF5FEA027C24BFB1E81850A0E81850DB
:1006E00044BF18C918C0BDE810405FEA827C24BF2F
:1006F00051F8043B40F8043B08BF7047D20728BFBD
:1007000031F8023B48BF11F8012B28BF20F8023B0B
:1007100048BF00F8012B70474FF000020429C0F0D9
:10072000128010F0030C00F01B80CCF1040CBCF123
:10073000020F18BF00F8012BA8BF20F8022BA1EB75
:100740000C0100F00DB85FEAC17C24BF00F8012B5A
:1007500000F8012B48BF00F8012B70474FF0000252
:1007600000B5134694469646203922BFA0E80C50A7
:10077000A0E80C50B1F12001BFF4F7AF090728BF82
:10078000A0E80C5048BF0CC05DF804EB890028BFFE
:1007900040F8042B08BF704748BF20F8022B11F027
:1007A000804F18BF00F8012B7047704770477047A3
:1007B00010B500F0A9FA006810BD10B5044600F0AD
:1007C000A3FA046010BD2DE9F0470D469946924604
:1007D000044600F124080168880604D5E06921F088
:1007E0001001216000E00120A84201DD471B00E06C
:1007F0000027A1697A1902EB0900081AA061207884
:10080000C00602D42046FFF775FD002608E0D4E9B3
:1008100001211AF806009047206A401C761C2062CD
:100820004E45F4DB2078C0060AD52046FFF762FD6E
:1008300006E0D4E9012130209047206A401C206264
:10084000381EA7F10107F4DC07E0D4E9012118F80C
:1008500005009047206A401C2062281EA5F1010572
:10086000F3DC2046FFF75CFD2078000602D502206D
:10087000BDE8F0870120FBE770472DE9FF4F0C46EC
:100880001E464FF0FF378BB0D2E90001DDF86080E3
:100890000A908A46C1F30A5505B93D46002108462B
:1008A0004FF00000BAF1000F00F4400005DA00EB51
:1008B00080004FF4400101EA50004FEA9059B9F12D
:1008C000010F00DDB9460A9850EA4A000ED044F6FE
:1008D0001050A5F2FF3545432F14B8F1000F1ED07C
:1008E0007542291E1EDDC9F100021CE0B8F1010F9E
:1008F0004FF0000001D0302103E0F24305E0215425
:10090000401CB042FBDB30460022002121540B99F1
:10091000C1F80880C1E900200FB0BDE8F08FBD1B11
:100920006D1CDEE74A4600DA694206A800F076FA56
:1009300006AB93E8070003AB83E8070050460A992B
:1009400000F057FB8DE80700A0F500501F3800901D
:100950000398002D0ADD42F21F014A460844002395
:1009600003A90390684600F0C0FD09E0A0F500501F
:100970004A461F38002303A90390684600F0CAFDC9
:100980008DE807000004000C03D04FF0FF30410851
:1009900000E01046B8F1000F03D000220092154687
:1009A0001EE0751E05D400F0B3F9303262556D1E9D
:1009B000F9D5B3460122084302D000227F1C04E08F
:1009C0002078302801D100227F1E002A099784D088
:1009D0001DE0112D07DA00F09BF9303262556D1CD5
:1009E00050EA0102F5D1084302D00098C8B10EE0E8
:1009F0000021681E05E0235C625C63542254401EA3
:100A0000491C8142F7DBAB46A81B401E0990002021
:100A100004F80B000B98099AC0F80880C0E9002B75
:100A20007AE711264FF0000857E72DE9F04F884686
:100A30000446D21D22F0070191B0D1E90001CDE9B1
:100A40000A0104F0C0FF02460B98C00F01D02D2010
:100A500007E02068810701D52B2002E0202101EA70
:100A6000C000032A099001D0072A05DB034641464E
:100A7000204600F093F90BE12078800601D5E0696B
:100A800000E00620B8F1650F814606D0B8F1660F88
:100A900018D0B8F1670F70D131E00020B9F1110F13
:100AA000009001DB112301E009F101030AAA01A969
:100AB0000CA8FFF7E2FEDDE90C70002609F1010544
:100AC000834647E001204B4600904FF000470AAABA
:100AD00001A90CA8FFF7D1FEDDE90DB00C995D4628
:100AE000002610B909F101000D18B9EB050003D477
:100AF000C0F1FF3609F10105A5EB09002BE0B9F1C2
:100B0000010F01DA4FF001090020B9F1110F009037
:100B1000484601DD112300E003460AAA01A90CA8FA
:100B2000FFF7ABFEDDE90C704D46002683462078CA
:100B300000070AD4AB4500DA5D4601A8012D04DDAB
:100B4000411911F8011C302907D04F4502DA17F17D
:100B5000040F04DA012082460FE06D1EEEE7002F3D
:100B600002DCED1B3E4403E0781CA84200DD7D1C46
:100B7000B81B00F1010A4FF000472078000703D4AA
:100B8000AA4501DB4FF0FF3A0021B7F1004F0DF10C
:100B900043088DF8431024D002202B23002F01DAC4
:100BA0007F422D230A21021EA0F1010000DC5FB16B
:100BB00097FBF1FC97FBF1F201FB1C7C17460CF153
:100BC000300C08F801CDEEE7A8F101000370218890
:100BD000090501D5452100E06521A0F1010800F8D3
:100BE000011C09980FA9A1EB0807FF1D00B1012006
:100BF000411901EBEA70A1693844081A401EA0614E
:100C00002078C00602D42046FFF774FB099828B16B
:100C1000D4E901219047206A401C20622078C00658
:100C200022D52046FFF766FB1EE0002E04DBB3450D
:100C300002DD01A8805D00E03020D4E90121904769
:100C4000206A401C2062761CAAF101005FEA000ABB
:100C50000AD100F055F8C0680168405CD4E9012170
:100C60009047206A401C2062281EA5F10105DCDCAB
:100C700007E0D4E9012118F8010B9047206A401CD5
:100C80002062381EA7F10107F3DC2046FFF748FB7E
:100C9000032011B041E6000001694A1C0261087896
:100CA000704700B58FB0CDE90131002105910549AC
:100CB0007944CDE9031011466846FFF7A7FB0FB052
:100CC00000BD0000E5FFFFFF0A6802F8010B0A60A3
:100CD000704710B5436913B1AFF3008001E0FFF72F
:100CE00030FB012010BD127800F124010A700022AF
:100CF0004A700122EDE711684FF0FF32E9E700008A
:100D000000487047182E002000487047F82D00203A
:100D100030B5B0F10A024FEA900E71F100034EEACD
:100D2000817EB0EB0E0061EB91014FEA101E4EEA9E
:100D3000017E10EB0E0041EB11114FEA102E4EEA2E
:100D4000016E10EB0E0041EB11214FEA104E4EEAFE
:100D5000014E10EB0E0041EB1141401841F1000132
:100D60004FEAD00040EA41704FEAD10110EB800514
:100D70004FEA810444EA907444EB01046D1944EB9A
:100D80000404521BA3414FF0000348BF0A3200D5B0
:100D900030BD401C41F1000130BD00002DE9F041A3
:100DA0001F46044603260168072A01F4006004DB9D
:100DB00008B116A505E016A503E008B115A500E0E9
:100DC00015A521F010002060A069C01EA0610FB120
:100DD000401EA0612046FFF78DFA4FB1D4E90121F2
:100DE00038469047206A401C2062C01C206206E002
:100DF000206AFAE7D4E9012115F8010B9047761E25
:100E0000F8D22046FFF78CFABDE8F0814E414E0043
:100E10006E616E00494E4600696E66002DE9F0472E
:100E2000814616468AB0354878440DC88DE80D00D5
:100E300032487844801C03AC0DC884E80D0041F6AC
:100E40009B300844372190FBF1F290FBF1F5A5F1BE
:100E5000800501FB12041B3C02D56442012000E026
:100E60000020DFF898A080460027FA44AAF1BE0AC5
:100E70000EE0E0070AD03246684607EB470101233F
:100E80000AEB810100F046FB8DE8070064107F1C2F
:100E9000002CEED1194F7F44AE3F19E0E80715D082
:100EA00007EB04100DF1180A90E80E008AE80E0016
:100EB000C068F04201D1981908903246012306A972
:100EC00003A800F027FB03AB83E807006D10641C48
:100ED000002DE3D14FF0010332466946B8F1000F0F
:100EE00003A802D000F001FB01E000F013FBC9E908
:100EF0000001C9F808200AB0BDE8F0872C8800007E
:100F000000487047F82D00207546FFF7F9FFAE4600
:100F100005006946534620F00700854618B020B505
:100F2000FFF7C2F9BDE820404FF000064FF0000780
:100F30004FF000084FF0000B21F00701AC46ACE881
:100F4000C009ACE8C009ACE8C009ACE8C0098D46EE
:100F5000704710B50446AFF300802046BDE810404E
:100F6000FFF741B94FF0013C50F8042B51F8043B16
:100F70009A4221D1A2EB0C03934313EACC1317D16D
:100F800050F8042B51F8043B9A4215D1A2EB0C0304
:100F9000934313EACC130BD150F8042B51F8043BC4
:100FA0009A4209D1A2EB0C03934313EACC13DBD092
:100FB0004FF00000704700BFD01A01BAB1FA81F1BA
:100FC00001F0180122FA01F0CB40C1F12001DBB29F
:100FD000C0B2C01A2CFA01F3D11A914311EAC3111D
:100FE000E6D1704701491820ABBEFEE7260002009B
:100FF00070475FEA400C08BF91F0000F4FEA8C2366
:101000004FEAC12243EA51514FEA1C5018BF00F584
:10101000F0404FEA300018BF41F000415FEA6C5CDD
:1010200000F02980BCF1FF3F08BF40F080407047CE
:10103000130C06BF12044FF0100C4FF0000C130EEF
:1010400004BF12020CF1080C130F04BF12010CF1C3
:10105000040C930F04BF92000CF1020CD30F04BFD9
:1010600052000CF1010C11464FF00002A0F11F00DC
:10107000A0EB0C00704711F0004F08BF704731F033
:1010800000413FF4D5AF0B0C06BF09044FF0100C24
:101090004FF0000C0B0E04BF09020CF1080C0B0FF3
:1010A00004BF09010CF1040C8B0F04BF89000CF183
:1010B000020CCB0F04BF49000CF1010CCCF1200352
:1010C000A0EB0C0022FA03F302FA0CF241EA03014E
:1010D00000F10100704720F07F4C80EA030023F00C
:1010E0007F47ACEB070303F57C5300F0004003F1AE
:1010F000FF032DE980494FEA154B09B44FEA144329
:1011000025EA0B4E24EA03480FF2042606EB1327C8
:1011100049083E785FEA320203FB0667C7F500071D
:1011200007FB06F64FEA54374FEAD64606F10206A9
:1011300007FB066CCCF1005C4FEA1C472CEA074C1D
:1011400007FB06F40CFB06F504EB15464FEA961672
:1011500034BF00204FF000404FEAD13706FB07FCB8
:101160004FEA1C4C0CFB0BF7D21B03FB0CF761EB9B
:1011700007010CFB0EF7B0EB074072EB17420CFBBC
:1011800008F734BFA2EB0742B2EB074261EB17410D
:101190004FEA0C444FEA910706FB07FC4FEA1C4C50
:1011A0000CFB0BF7B0EBC74072EB573203FB0CF7AD
:1011B00034BFA2EBC742B2EBC74261EB57310CFB25
:1011C0000EF7B0EBC70072EB57720CFB08F734BF99
:1011D000A2EBC702B2EBC70261EB5771039F4FEA64
:1011E000816141EA921104EBCC044FEAD1374FEA16
:1011F000826206FB07FC42EA90124FEA80604FEAE7
:101200001C4C0CFB0BF7D21B03FB0CF761EB07012B
:101210000CFB0EF7B0EB074072EB17420CFB08F724
:1012200034BFA2EB0742B2EB074261EB17414FEA32
:101230008C554FEA910704EB9C2406FB07FC4FEA10
:101240001C4C0CFB0BF7B0EBC74072EB573203FBA7
:101250000CF734BFA2EBC742B2EBC74261EB573188
:101260000CFB0EF7B0EBC70072EB57720CFB08F7E4
:1012700034BFA2EBC702B2EBC70261EB577115EBAB
:101280004C254FEA816141EA92114FEA82624FEAAE
:10129000D13742EA901206FB07FC44F100044FEA02
:1012A00080604FEA1C4C0CFB0BF7D21B03FB0CF7C6
:1012B00061EB07010CFB0EF7B0EB074072EB174236
:1012C0000CFB08F734BFA2EB0742B2EB074261EB1D
:1012D000174115EB1C154FEA813141EA92414FEA63
:1012E000823242EA90424FEA80304FEA0C7644F173
:1012F000000448EA03434EEA0B484FF0000EB2EBFD
:10130000080C71EB030724BF624639464EEB0E0E04
:101310004FF0000B0018524149414BEB0B0BB2EB65
:10132000080C71EB03077BF1000B24BF62463946C2
:101330004EEB0E0E4FF0000B0018524149414BEBA3
:101340000B0BB2EB080C71EB03077BF1000B24BF16
:10135000624639464EEB0E0E51EA020718BF46F0C0
:10136000010616EB0E7655F1000254F1000103D58B
:10137000BDE88901BDE80088BDE88901BDE80048F5
:10138000B619524141EB0101A3F10103704780807E
:101390007F7E7D7C7B7A79787776767574737271CF
:1013A00071706F6E6E6D6C6C6B6A6A696868676687
:1013B00066656464636362616160605F5F5E5E5D19
:1013C0005D5C5C5B5B5A5A5959585857575656558D
:1013D00055555454535352525251515050504F4FEF
:1013E0004F4E4E4D4D4D4C4C4C4B4B4B4A4A4A493F
:1013F0004949484848474747474646464545454482
:101400004444444343434342424242414141002B0E
:101410009C4630D477002BD01CB54FEA370703B475
:101420004FF010004FF01001BAF1000F06D0BCF1E0
:10143000000FDCBF40F0080040F008014FF0000052
:101440000FBCBDE810400BF1010BBBF1010F08BF51
:101450005FEA170722BF12F1010211F101014FF0FB
:10146000004143F1000300F0004043EA00007047F0
:10147000F9D35708D0E746EA064613F1400F4FEA82
:1014800016461FDD13F1200FDFBF16430A46002169
:1014900020335B42BED0C3F1200746EA064602FA7B
:1014A00007F74FEA164646EA0706C3F1200722FA75
:1014B00003F201FA07F721FA03F14FF0000342EAC1
:1014C0000702A7E746EA020646EA06464FEA16463C
:1014D00046EA0106BCBF46EA0646360C4FF000035A
:1014E0004FF000024FF0000194E72DE9804C9A463E
:1014F000934670B491E8380007C831EA400C48BF01
:1015000034EA430C03D5FFF7E6FDFFF780FFF0BC9C
:10151000BDE8008C2DE9804C9A46934670B491E862
:10152000380007C810F0804F08BF13F0804F03D178
:1015300000F005F8FFF76BFFF0BCBDE8008C20F071
:101540007F4780EA030023F07F4C07EB0C03A3F5F1
:101550007C5300F00040A3F1FE0392F0000F00F076
:10156000B38095F0000F00F077802DE901494FEA34
:1015700011404FEA144621EA004800FB06FC24EA29
:10158000064708FB06F607FB08F800FB07F718EB11
:1015900006484CEB164C4FEA124B18EB07484FEA43
:1015A00015464CEB174022EA0B4E0BFB06FC25EAD6
:1015B00006470EFB06F607FB0EFE0BFB07F71EEBBE
:1015C000064E4CEB164C4FF000061EEB074E4CEB54
:1015D000174B18EB0B0840F1000018EB0E0B58EB03
:1015E000000840F100008F1A4FF000013CBFC943D2
:1015F000661B14BFB5EB040C00213CBFC943F61BAE
:101600004FEA17444EEA8E0E27EA04454FEA1C477C
:1016100004FB07622CEA074C05FB07F70CFB05F6F9
:1016200004FB0CFC16EB074642EB174216EB0C468C
:1016300042EB1C421BEB060658EB0202414146EA14
:101640009E0601D5BDE80189B619524141EB010161
:10165000A3F10103BDE801894FEA14454FEA1147A0
:1016600024EA054621EA074C05FB07F406FB07F7C9
:101670000CFB06F105FB0CFC11EB074144EB174496
:101680004FEA124711EB0C4144EB1C4422EA074C91
:1016900005FB07F206FB07F70CFB06F605FB0CFC47
:1016A00016EB074642EB174216EB0C4642EB1C4585
:1016B0006A1854F1000148BF7047B619524141EB16
:1016C0000101A3F10103704795F0000F37D04FEAF5
:1016D00011424FEA144721EA024624EA074C02FB72
:1016E00007F106FB07F70CFB06F402FB0CFC14EBFE
:1016F000074441EB17414FEA154714EB0C4441EB0B
:101700001C4125EA074C02FB07F506FB07F70CFB1B
:1017100006F602FB0CFC16EB074645EB174516EBED
:101720000C4645EB1C42121951F1000148BF7047AD
:10173000B619524141EB0101A3F1010370474FEA91
:1017400014454FEA114724EA054621EA074C05FBF8
:1017500007F106FB07F70CFB06F24FF0000605FB4E
:101760000CFC12EB074241EB174112EB0C4251EB20
:101770001C4148BF7047921841EB0101A3F10103DE
:1017800070470000044B08B1002200E00122012153
:10179000184600F09EBB0000000C014010B54FF44D
:1017A00080720749074802F015F807490020886051
:1017B00004480068C16841F01001C16010BD00001C
:1017C00038050020400A00201800002070B50C4C9D
:1017D0002078002812D0002020700A480068406855
:1017E000094EC0F58075A06806E0305C03F0C0FCCF
:1017F000207A401CC0B2A060A842F6D170BD0000A3
:1018000018000020880A002038050020044808B588
:10181000006801684068034900900120087008BD15
:10182000400A0020180000202DE9F04F0446A5B022
:10183000406907F007F983468846206907F002F9F6
:10184000CDE90601E06807F0FDF881468A46A06808
:1018500007F0F8F806460F46606807F0F3F805460B
:101860000191206807F0EEF8009502AD0B4685E87F
:10187000C006CDE908B8024609A10AA8FEF726FD70
:1018800004F092F80AA8FEF7B1FE82B264230AA916
:10189000104801F0AFFF04F08FF825B0BDE8F08FDD
:1018A00041583A252E32662041593A252E3266207B
:1018B000415A3A252E32662047583A252E32662064
:1018C00047593A252E326620475A3A252E32660D60
:1018D0000A000000400A00200EB50246AA208DF83A
:1018E000000002208DF8010004218DF80210CDF8CF
:1018F00003200DF1030200F014F88DF807005520C5
:101900008DF8080004F050F8642309226946034862
:1019100001F070FF04F050F80EBD0000400A0020F6
:10192000FEE710B54840002303E0D45C60405B1C38
:10193000DBB28B42F9D310BD014800F0A5B800001E
:10194000880A002030B590F840500124AC40C56BA7
:101950006C60046863604368102B036803D099606F
:101960000068C26030BD9A600068C16030BD7047D9
:1019700010B54FF48064204600F0AAF901480460D5
:1019800010BD00001404014072B6FEE70148406932
:10199000704700004000002000487047A40000206D
:1019A00010B590F821100022022905D0042181638E
:1019B00080F82020012010BD01680B6823F00E0381
:1019C0000B6001680B6823F001030B6090F8403056
:1019D000C46B012101FA03F3636080F8211080F8E1
:1019E0002020104610BD000010B590F821100024F2
:1019F000022903D00421816301243DE001680A68C3
:101A000022F00E020A6001680A6822F001020A60F0
:101A10001A4A0168914201D1012121E0174A14328A
:101A2000914201D110211BE0144A2832914201D188
:101A3000891515E0114A3C32914201D189140FE019
:101A40000E4A5032914202D14FF4803108E00B4AE5
:101A50006432914202D14FF4801101E04FF0807165
:101A6000064A083A5160012180F82110002180F8CF
:101A70002010416B01B18847204610BD080002408C
:101A800090F82100704700002DE9F05FC16B0C68F1
:101A900001680B68D0F840C0042202FA0CF2494DEC
:101AA000DFF824A1494E4A4FDFF828B1DFF828E1DA
:101AB00022422CD05A072AD50A68920603D40A6813
:101AC00022F004020A600168A94201D1042219E04F
:101AD000514501D1402215E0B14202D14FF480625C
:101AE00010E0B94202D14FF480420BE0594502D1D7
:101AF0004FF4802206E0714502D14FF4800201E0EC
:101B00004FF080622F4908394A60C16A3BE04FF0CC
:101B1000020808FA0CF818EA040F4FF000094FF019
:101B2000010235D05FEA837832D50B689B0605D475
:101B30000B6823F00A030B6080F821200168A9429A
:101B400001D1022219E0514501D1202215E0B14214
:101B500002D14FF4007210E0B94202D14FF40052AA
:101B60000BE0594502D14FF4003206E0714502D135
:101B70004FF4001201E04FF00072124908394A6038
:101B800080F82090816A00291AD0BDE8F05F0847EC
:101B9000082505FA0CF5254212D01B0710D50B6855
:101BA00023F00E030B6090F84010C36B02FA01F1B2
:101BB0005960826380F8212080F82090016BE2E771
:101BC000BDE8F09F080002401C00024030000240C7
:101BD00044000240580002406C00024030B528B377
:101BE00008C8134914221944B1FBF2F18900C163FA
:101BF00010498163022141771A6843F6F0718A43E4
:101C0000D0E900142143D0E902452C432143046963
:101C10002143446921438469214311431960002110
:101C20004163012242770177084630BD012030BD73
:101C3000F8FFFDBF0000024070B5044690F8200098
:101C4000002501280CD0012084F8200094F82160A0
:101C50000020012E06D084F820000225284670BD01
:101C6000022070BD022684F82160A0632068066807
:101C700026F0010606602046FFF764FEE06A0028B1
:101C80002068016802D041F00E0106E021F0040155
:101C900001602068016841F00A0101602068016864
:101CA00041F001010160D9E770B5044600F016F972
:101CB0000546601C02D004480078044400F00EF988
:101CC000401BA042FAD370BDB40000207047000052
:101CD000044910B50A68024202D00860FFF7F6FF17
:101CE00010BD0000140401402DE9F84FDFF8B89151
:101CF0000024A9F1040B23460F2709F1040AABF1D4
:101D0000040EC9E00125A5402A40AA427DD1674EB4
:101D1000D1F804C0ACEB0608B44532D014DCBCF1F9
:101D2000030F3AD009DCBCF1000F2AD0BCF1010F3F
:101D30001CD0BCF1020F31D11DE0BCF1110F17D046
:101D4000BCF1120F2AD119E0B8F5881F19D006DCB2
:101D5000B8F5803F15D0B8F5801F1FD111E0B8F558
:101D6000001F0ED0B8F5041F18D10AE0CB6815E0AB
:101D7000CB681B1D12E0CB6808330FE0CB680C3337
:101D80000CE08B682BB1012B4FF0080303D04561A9
:101D900004E0042302E0056100E00023FF2A01D8EB
:101DA000064601E000F104064FEA840501D9A5F1D9
:101DB0002005D6F8008007FA05FC28EA0C0803FA8B
:101DC00005F548EA0508C6F800804D68ED0062D5C3
:101DD000374DAE6946F00106AE61AD6924F00306E9
:101DE00005F001050095334D06EB050CDCF80850B5
:101DF000A607360F07FA06F825EA0805DFF8B880C7
:101E0000404503D14FF0000817E044E0DFF8AC8014
:101E1000404502D14FF001080FE0DFF8A4804045B3
:101E200002D14FF0020808E0DFF89880404502D167
:101E30004FF0030801E04FF0040808FA06F848EAFA
:101E40000508CCF808804D68D9F80060ED024D46D1
:101E500001D5164300E096432E604D68DAF8006025
:101E6000AD02554601D5164300E096432E604D68FD
:101E7000DBF80060AD035D4601D5164300E09643F4
:101E80002E604D68DEF80060ED03754601D51643FF
:101E900000E096432E60641C0D682A46E5407FF4FE
:101EA00031AFBDE8F88F00000804014000001110B8
:101EB000001002400000014000080140000C0140F9
:101EC00000100140001401408068084000D001204B
:101ED00070470AB1016170470904FBE70148806857
:101EE00070470000B4000020704770472DE9F041B2
:101EF000016804464A694E6890F83E000025D743C1
:101F0000FA050BD4F243D20508D46FF48072012590
:101F10004A6121680A6842F400420A60B90508D49F
:101F2000F143C90505D422686FF4007145F002053C
:101F30005161790525D4F143C90522D4638D94F804
:101F40003D10226B202808D13BB9212910D0292926
:101F50000ED0282901D1212A0AD022686FF480618D
:101F6000516145F00405102806D0402804D008E04F
:101F7000204602F0DDF904E02068016841F40071B8
:101F80000160380508D4F043C00505D421686FF41A
:101F9000006045F008054861002D07D0206C2843FB
:101FA00020642046BDE8F04101F0F8BCBDE8F081B6
:101FB0002DE9F047026800215368C66A90F83E4058
:101FC00090F83D50102C12D0402C10D0046C002CF6
:101FD0007DD05469E443A6077AD4DE43B60577D4AE
:101FE000036C03B19169BDE8F04702F07DB99769D0
:101FF00051694FF42A0CC9435FEAC1784FF02A496E
:1020000004D066452AD04E4528D010E0DE43B60500
:102010000DD4C16A614501D1012103E0C16A49457E
:1020200001D10821C162BDE8F04702F06FB80E0788
:1020300016D4DE43B60513D4416CC9B21161416BAD
:1020400009B1896A29B9816B002907D0896A0029F9
:1020500004D00068416841F400614160BDE8F08748
:102060008E0706D4DE43B60503D4BDE8F04701F081
:10207000A1BFFE43526876074FEA02521DD4002AE0
:10208000ECDB0A0608D4DA43520505D4490705D526
:10209000BDE8F04701F032BF4907DFD4D9438905D5
:1020A000DCD4212D05D0402CD8D1BDE8F04702F07A
:1020B00073B8BDE8F04701F0DFBE002ACEDB4A0668
:1020C0000BD4DA43520508D4490708D501E00DE0E6
:1020D0000EE0BDE8F04701F091BD4907BED4D943F9
:1020E0008905BBD4BDE8F04701F01BBD916970E7DD
:1020F000E10606D4D943890503D4BDE8F04702F0D0
:102100005FB92821212D27D0292D25D0650655D44A
:10211000DD436D0552D4640752D590F83D30448DAF
:10212000002C9BD01269446A2270426A521C42629F
:10213000428D521E4285428D002A8FD12A2B8DD18D
:102140000268536823F4806353602222026380F89C
:102150003D1000F0A5FB81E7250623D4DD436D0586
:1021600020D4640720D590F83D30448D002CF2D067
:10217000446A24781461426A521C4262428D521EA3
:102180004285428D002AE6D1292BE4D102685368AA
:1021900023F4806353602122026380F83D1000F035
:1021A00080FB5BE76107D6D4D9438905D3D4418D41
:1021B0000029D0D0416A097811610AE06107CAD4C8
:1021C000D9438905C7D4418D0029C4D01169426A19
:1021D0001170416A491C4162418D491E41853DE7AC
:1021E0007047000070B5040025D094F83D0000252C
:1021F00020B984F83C50204600F014FB242084F8D9
:102200003D002068016821F001010160206801683B
:1022100041F4004101602068016821F4004101603F
:1022200000F0BAFC4D4A6168914201D84C4900E087
:102230004C49884201D2012070BD4B492368B0FB54
:10224000F1F15E6826F03F060E435E6063689342DC
:1022500006D94FF4967359434FF47A73B1FBF3F1F7
:102260002368491C1E6A26F03F06314319626168E3
:10227000914210D84900401EB0FBF1F2521CC2F34B
:102280000B02042A01D2042022E0B0FBF1F0401C32
:10229000C0F30B001CE0A268F2B301EBC10303EB37
:1022A0000116431EB3FBF6F35B1C43F480431B058E
:1022B00049D092B301EBC10202EB0111401EB0FB09
:1022C000F1F0401CC0F30B0040F4804040F40040AB
:1022D0002168CA694CF6FF739A431043C861D4E978
:1022E000071001432068026822F0C0021143016018
:1022F000D4E9030101432068826848F2FF339A431E
:1023000011438160D4E9050108432168CA6822F0BD
:10231000FF021043C86001E00EE016E0206801688B
:1023200041F0010101602564202084F83D0025630F
:1023300084F83E50002070BD01EB4106431EB3FB04
:10234000F6F35B1CB3E70120C2E701EB4101401E3D
:10235000B0FBF1F0401CC0F30B00B7E7A086010012
:1023600080841E0000093D0040420F007047704706
:10237000704700002DE9F84F0025DDF828909846B9
:1023800017468A4604460095FFF7A8FD064694F8CE
:102390003D0020287AD11923012286492046009643
:1023A00002F0E8F80028F5D194F83C0001286DD03F
:1023B000012084F83C0020680168C90703D1016846
:1023C00041F0010101602068016821F400610160B1
:1023D000222084F83D00102084F83E0025646762C6
:1023E000A4F82A80608D20857348E06233464A460F
:1023F0005146204601F07CFC00287CD1208DDFF87E
:10240000BC81202768B1012814D002282068016807
:102410001ED041F4806101602068416980690090AC
:10242000BBE02068416981690091016841F4007155
:102430000160B2E02068016821F48061016072B639
:102440002068416981690091016841F400710AE0E6
:1024500041F40061016072B62068416981690091B0
:10246000016821F48061016062B696E0032865D8B6
:1024700001280CD002284B464FF00002414620466E
:1024800000960BD002F076F8A8BB0CE090E0324644
:102490004946204602F014F968BB71E002F06AF880
:1024A00048BB72B633E02068016821F480610160A6
:1024B00072B620680069616A0870606A401C6062D8
:1024C000208D401E2085608D401E60853C4846F270
:1024D000A8110068B0FBF1F0C0EBC00000EB800079
:1024E0000090401E009007D020684069C04340071C
:1024F0000DD50098F5E727E044F8305F6773A573C2
:10250000206940F02000206162B625731CE020683D
:10251000016841F40071016020680069616A087017
:10252000606A401C6062218D491E2185618D491EB3
:10253000618562B621680969017025E03246494625
:10254000204602F0BDF810B10120BDE8F88F2068E8
:102550000069616A0870606A401C6062208D401EDC
:1025600081B22185608D401E608520684269D2431A
:10257000520712D4032903D1016821F4806101605C
:1025800020680069616A0870606A401C6062208D82
:10259000401E2085608D401E6085208D00287FF4C0
:1025A00065AF84F83D7084F83E5084F83C50CCE729
:1025B0000220CAE7020010000000FFFF0400010033
:1025C000C00000202DE9F84F1F4690468A46044679
:1025D000DDF82890FFF782FC054694F83D0020289E
:1025E0007FD11923012240492046009501F0C2FF06
:1025F000002876D194F83C00012872D0012084F89C
:102600003C0020680168C90703D1016841F001015D
:1026100001602068016821F400610160212084F8D4
:102620003D00102084F83E0000262664C4F8248073
:102630006785608D20852D48E0622B464A465146CD
:10264000204601F0CBFB90B9206841698069009079
:1026500036E02A464946204602F06AF850B1206C1E
:10266000042804D12068016841F400710160012050
:10267000BDE8F88F606A216800780861606A401CD4
:102680006062618D491E6185218D491E89B2218557
:1026900022685369DB435B070BD451B100781061AA
:1026A000606A401C6062608D401E6085208D401E07
:1026B00020852A464946204601F030FF0028CED129
:1026C000208D0028C5D154F83D0B016841F40071FC
:1026D0000160202004F81E09E67766770020C7E72E
:1026E000FFE70220C4E70000020010000000FFFF27
:1026F000704770472DE9FF4F83B09A46DDE9119787
:1027000093460446DDF84080FFF7E8FB054694F861
:102710003D0020287FD11923012240492046009501
:1027200001F028FF002876D194F83C00012872D0EF
:10273000012084F83C0020680168C90703D10168C2
:1027400041F0010101602068016821F4006101602D
:10275000212084F83D00402084F83E0000262664B5
:10276000C4F82480A4F82A90608D20852C48E0626B
:10277000CDE9007553465A462046049901F060FDA4
:1027800070B930E02A463946204601F0D1FF58B1F1
:10279000206C042804D12068016841F400710160B4
:1027A000012007B0BDE8F08F606A216800780861F9
:1027B000606A401C6062218D491E89B22185628D4C
:1027C000521E628522685369DB435B070BD469B1F3
:1027D00000781061606A401C6062208D401E208578
:1027E000608D401E6085208D0028CBD12A46394659
:1027F000204601F093FE0028CAD154F83D0B016831
:1028000041F400710160202004F81E09E677667724
:102810000020C6E7FFE70220C3E700000200100027
:102820000000FFFF10B586B00021009101910291D8
:1028300003910068174988422AD1174CA06940F0DB
:102840000800A061A069694600F008000490C0205B
:10285000009012200190032003901048FFF744FAE3
:10286000E06940F40010E061E069002200F400102B
:10287000049006211F2000F0A7F81F2000F096F812
:1028800000220621202000F09FF8202000F08EF882
:1028900006B010BD0054004000100240000C014082
:1028A0007047704702488168027811448160704720
:1028B000B4000020074810B5016841F01001016024
:1028C000032000F0A1F80F2000F006F800F04AF80D
:1028D000002010BD0020024030B505461C4887B0DE
:1028E000816941F400618161806906A900F400609A
:1028F000009001A800F030F900F05EF91549164A81
:10290000B0FBF1F11548491E0260416040F2E73228
:102910000021C0E903218160816100F049FB0400CE
:1029200012D10E4800F08EFB04000DD1192000F0EA
:102930003DF8102D07D200222946192000F044F856
:102940000748056000E0012407B0204630BD0000C4
:102950000010024040420F00002C0140CC0A002031
:10296000B80000200F4808B5816941F0010181617C
:10297000816901F001010091C16941F08051C1619B
:10298000C069002200F0805000900F21901E00F0DE
:102990001BF80548416821F0E06141F00071416099
:1029A00008BD00000010024000000140002809DBC3
:1029B00000F01F02012191404009800000F1E02059
:1029C000C0F8001170470000F0B40E4B1B680C46B5
:1029D000C3F30223C3F10705042D00D90425191DF3
:1029E000072901D2002300E0DB1E012606FA05F1CB
:1029F000491E214099409E40761E16403143F0BC4E
:102A000003F008B80CED00E0064900F00702086882
:102A10004FF6FF03184040EA0220034A10430860C3
:102A2000704700000CED00E00000FA052DE9F047CA
:102A30000F46050061D0434E306800F00700B842F1
:102A400009D2306820F0070038433060306800F069
:102A50000700B84251D128683B4C810712D5400786
:102A600003D5606840F4E06060602878000703D513
:102A7000606840F4605060606068A96820F0F00011
:102A8000084360602878C00728D06868012810D003
:102A90002168022810D0890700292EDA616821F008
:102AA000030101436160FFF719FA804641F288395A
:102AB0000DE021688903EFE78901EDE7FFF70EFAE2
:102AC000A0EB0801494502D90320BDE8F087606802
:102AD000696800F00C00B0EB810FEFD1306800F0B6
:102AE0000700B8420BD9306820F007003843306047
:102AF000306800F00700B84201D00120E5E72878EF
:102B0000400705D56068E96820F4E060084360602C
:102B10002878000706D56068296920F4605040EAEB
:102B2000C100606000F058F86168084AC1F3031101
:102B3000515CC8400649086006480068FFF7CCFEB3
:102B40000020C2E70020024000100240B2950008B9
:102B5000C0000020B80000200F2202600C4A536819
:102B600003F003034360536803F0F003836053688A
:102B700003F4E063C36052684FF4E06303EAD202F7
:102B800002610448006800F0070008607047000018
:102B900000100240002002400448054900684968CE
:102BA000044AC1F30221515CC8407047C0000020B4
:102BB00000100240C29500080448054900684968B1
:102BC000044AC1F3C221515CC8407047C0000020D4
:102BD00000100240C29500080E4A51680E4801F0EC
:102BE0000C03042B11D0082B0FD10C48C1F38343E5
:102BF000C903C05C0AD55168084AC1F34041921E1E
:102C0000515C054A5043B0FBF1F07047044948431A
:102C1000704700000010024000127A00A2950008E0
:102C200000093D002DE9F84F040070D02078C04D18
:102C3000C00749D06868C0F38100012807D06868E0
:102C4000C0F38100022809D16868C00306D528684E
:102C5000800339D560680028E7D035E06068B0F5BA
:102C6000803F0BD010B1B0F5A02F11D0286820F410
:102C700080302860286820F4802002E0286840F432
:102C800080302860606890B1FFF728F906460AE0B6
:102C9000286840F480202860F0E700BFFFF71EF9A5
:102CA000801B642873D828688003F7D50CE0FFF7F1
:102CB00015F9064605E000BFFFF710F9801B6428F0
:102CC000F0D828688003F7D420789A4E80074FF018
:102CD00001094FF0000839D5686810F00C0F07D0D3
:102CE0006868C0F38100022809D16868C00306D46F
:102CF0002868800714D52069012808D110E02069D0
:102D0000B0B1C6F80090FFF7E9F8074605E00AE120
:102D1000FFF7E4F8C01B0228C4D828688007F7D55D
:102D20002868616920F0F80040EAC10028600DE0E1
:102D3000C6F80080FFF7D2F8074604E0FFF7CEF8A8
:102D4000C01B022823D828688007F7D42078000702
:102D50002CD57948A169D9B1C0F80090FFF7BEF829
:102D6000074604E0FFF7BAF8C01B02280FD8686ACC
:102D70008007F7D571484FF4FA510068B0FBF1F0C5
:102D8000009000BF0098411E0091FAD20EE080E052
:102D9000C0F80080FFF7A2F8074604E0FFF79EF8AE
:102DA000C01B022875D8686A8007F7D420784007CE
:102DB00060D5E8690027C00008D4E86940F0805079
:102DC000E861E869012700F0805000905C480168E4
:102DD000C90513D40168834641F480710160FFF78F
:102DE0007DF8824606E000BFFFF778F8A0EB0A0006
:102DF00064284ED8DBF80000C005F5D5E06801284E
:102E00000AD008B1052813D0286A20F001002862F2
:102E1000286A20F0040002E0286A40F001002862DD
:102E2000E06841F2883B98B1FFF758F882460BE022
:102E3000286A40F004002862EEE700BFFFF74EF872
:102E4000A0EB0A0159455AD8286A8007F6D50CE04C
:102E5000FFF744F8824605E0FFF740F8A0EB0A01CF
:102E600059454CD8286A8007F6D41FB1E86920F08C
:102E70008050E861E06988B36968C1F38101022983
:102E800044D00228C6F8608004D0FFF727F8044633
:102E900038E034E0FFF722F8074604E0FFF71EF8B9
:102EA000C01B02282BD828688001F7D4206AB0F50F
:102EB000803F05D16868A16820F40030084368604D
:102EC000D4E908010843696821F474110843686073
:102ED000C6F86090FFF702F8044606E025E000BF60
:102EE000FEF7FCFF001B022809D828688001F7D5EF
:102EF0001BE000BFFEF7F2FF001B022802D90320EF
:102F0000BDE8F88F28688001F4D40EE00128F7D0DE
:102F10006868226A00F48031914204D1616A00F449
:102F20007010884201D00120EAE70020E8E70000A5
:102F3000001002400000424280044242C0000020D3
:102F4000007000407047704770B590F83C20012A2F
:102F500026D0012480F83C40022280F83D200368FE
:102F60005A689D6822F070060A6832435A600D4B19
:102F700002689A4208D0B2F1804F05D00A4B9A42BB
:102F800002D00A4B9A4204D1496825F080031943C4
:102F9000916080F83D40002180F83C10084670BDEB
:102FA000022070BD002C01400004004000080040D9
:102FB00010B5040003D094F83D0010B107E00120E3
:102FC00010BD002084F83C00204600F01FF80220CD
:102FD00084F83D00211D206802F064FA012084F885
:102FE000460084F83E0084F83F0084F8400084F8EE
:102FF000410084F8420084F8430084F8440084F8D7
:10300000450084F83D00002010BD000008B50068B0
:10301000B0F1804F12D10A48C16941F00101C1618C
:10302000C069002200F00100009005211C20FFF77C
:10303000CBFCBDE808401C20FFF7B8BC08BD000071
:103040000010024090F83D10012901D00120704786
:10305000022180F83D100168CA6842F00102CA608E
:1030600000680B49884208D0B0F1804F05D009496B
:10307000884202D00849884204D1816801F00701E2
:10308000062903D0016841F001010160002070476A
:10309000002C0140000400400008004070B50446C8
:1030A00090F83C000025012817D0012684F83C60E8
:1030B000022084F83D002068826822F0770222F422
:1030C0007F4282600868502838D00DDC20284FD01D
:1030D00005DC90B3102811D14AE0022070BD3028E1
:1030E00046D040280AD13BE060282FD070280DD070
:1030F000B0F5805F03D0B0F5005F12D0012584F8F1
:103100003D60002084F83C00284670BDCB68D1E9C2
:103110000121206802F00FFA2068816841F07701F0
:1031200009E0CB68D1E90121206802F004FA2068A7
:10313000816841F480418160E1E719E0CA6849682B
:10314000206802F00AFA5021206806E0CA6849683F
:10315000206802F013FA6021206802F0F6F9CEE749
:10316000CA684968206802F0F8F940212068F4E74D
:10317000226801461046F0E72DE9F0410D460400B3
:1031800003D094F83D0018B108E00120BDE8F081BB
:10319000002084F83C00204600F040F8022084F82B
:1031A0003D002068816844F2070291438160211D3F
:1031B000206802F077F9226890689169166A2B6896
:1031C000AF69034340F20330814341EA0721A86815
:1031D000EF6908434FF6FC418843E96840EA07205D
:1031E000014328692F6A000140EA073008436968F3
:1031F0006D6926F0220646EA051529439360226888
:10320000906154F8460B0162012004F81F09E07533
:103210002076E0762077A0750020B7E700B585B06E
:103220000021009101910291039100680E498842AA
:1032300018D10E48C16941F00201C161C16901F0B4
:1032400002010491816941F004018161806969464C
:1032500000F004000490C020009001200290044877
:10326000FEF742FD05B000BD000400400010024022
:103270000008014070B590F83E60044690F83F5059
:1032800090F8423090F84320022021B104290ED05A
:10329000012E1BD114E0012E18D1012B16D184F878
:1032A0003E0084F8420001220021206820E0012D28
:1032B0000CD1012A0AD184F83F0084F8430014E0BD
:1032C000012D03D1012B01D1012A01D0012070BDB4
:1032D00084F83E0084F83F0084F8420084F84300FC
:1032E00001220021206802F019F90122042120683E
:1032F00002F014F92068016841F00101016000202A
:1033000070BD70472DE9F04104460068C668056944
:103310004FF00007A90713D5B10711D5F91E0161B8
:1033200001202077206880698007204602D0FFF7BF
:10333000E8FF04E000F07EF8204600F07CF82777F4
:10334000680716D5700714D521686FF0040008616E
:10335000022020772068806910F4407F204602D048
:10336000FFF7CFFF04E000F065F8204600F063F8B7
:103370002777280715D5300713D521686FF0080087
:103380000861042020772068C0698007204602D0A9
:10339000FFF7B7FF04E000F04DF8204600F04BF8CF
:1033A0002777E80616D5F00614D521686FF01000CF
:1033B0000861082020772068C06910F4407F20460B
:1033C00002D0FFF79EFF04E000F034F8204600F042
:1033D00032F82777E80708D0F00706D021686FF0A9
:1033E00001000861204600F027F8280608D53006BD
:1033F00006D521686FF0800008612046FFF7A2FD26
:10340000680608D5700606D521686FF0400008618F
:10341000204600F01BF8A8060AD5B00608D521689A
:103420006FF0200008612046BDE8F041FFF78BBD3A
:10343000BDE8F0817047704700680349884201D1B8
:10344000FFF730BA70470000002C0140704770470A
:1034500070470000F8B5016804460868CA684B69FF
:1034600010F00F0F4FF0000559D003F0010602F4E1
:103470009077374365D0C10705D0D10503D5616C7E
:1034800041F001016164410705D5D90703D0616CA2
:1034900041F002016164810705D5D90703D0616C51
:1034A00041F004016164010707D502F020013143B6
:1034B00003D0616C41F008016164616C00293AD06D
:1034C000800604D5900602D5204602F01DF920683A
:1034D0004069616CC0F38010090700D460B32046D6
:1034E00002F0DDF820684069400621D520681430DC
:1034F00050E8001F21F0400140E80012002AF5D1F9
:10350000E06BA8B16D494163E06BFEF76DFA0028EE
:1035100011D0E06B416B01B0BDE8F0400847830675
:103520000FD593060DD52046BDE8F84002F0ECB863
:103530002046FFF78DFFF8BD2046FFF789FF656441
:10354000F8BD266B2023012E7CD1C6067AD5D6067F
:1035500078D508684868009048694FF00206400630
:1035600040D5E16B086840680004000CE8D0A28DEB
:103570008242E5D9E085886920282DD020680C306A
:1035800050E8001F21F4807140E80012002AF5D1B4
:103590002068143050E8001F21F0010140E80012BB
:1035A000002AF5D12068143050E8001F21F04001B6
:1035B00040E80012002AF5D184F8423025632068E3
:1035C0000C3050E8001F21F0100140E80012002AE2
:1035D000F5D1E06BFEF7E4F96663A08DE18D401A4A
:1035E00081B22AE0A08DE18D401A81B2E08D0028E1
:1035F000A6D00029A4D022680C3252E8000F20F493
:10360000907042E80007002FF5D12068143050E890
:10361000002F22F0010240E80027002FF5D184F8A6
:103620004230256320680C3050E8002F22F0100251
:1036300040E80023002BF5D166632046FFF707FF23
:10364000F8BDFFE705062BD5150629D594F84100EE
:103650002128F5D1A068B0F5805F01D12069B0B113
:10366000206A411C2162216800784860E08C401E7D
:103670000004000CE084E3D12068C16821F08001DF
:10368000C1602068C16841F04001C160D8E7206A8C
:103690000088C0F308004860206A801C2062E5E7CB
:1036A0004006CDD55006CBD5CA68204622F0400250
:1036B000CA6084F8413000F0EDF8C1E7A155000878
:1036C00070B5040004D094F84100002510B106E064
:1036D000012070BD84F84050204600F023F82420DB
:1036E00084F841002068C16821F40051C16020467F
:1036F00002F06CF82068016921F4904101612068B2
:10370000416921F02A0141612068C16841F40051FA
:10371000C1606564202084F8410084F8420065633C
:10372000002070BD70B586B0002506460095019555
:10373000029503950068224988423ED12149886953
:1037400040F480408861886900F480400490886972
:1037500040F00400886188691B4C00F0040004906C
:1037600048150090022001900320039069462046EE
:10377000FEF7BAFA2015CDE9000569462046029504
:10378000FEF7B2FA124C1148C4E900058020C4E9E2
:10379000025025616561A5612046E561FEF71EFACC
:1037A00008B1FEF7F1F8F4630022072125206662D4
:1037B000FFF70AF92520FFF7F9F806B070BD000001
:1037C000003801400010024000080140580002404B
:1037D000880A002090F84230202B01D00220704748
:1037E00021B11AB10023036302F04CB801207047E5
:1037F000704770472DE9F843044690F84100984619
:1038000016460D46202802D00220BDE8F88385B177
:103810007EB100206064212084F84100FEF75EFB49
:10382000A6848146E684A0682027B0F5805F02D098
:1038300003E00120E9E7206910B12E4600250EE0E3
:1038400000260CE08021204602F064F8A8B9C6B139
:1038500016F8010B21684860E08C401EE084E08C83
:103860004B464FF00002CDF800800028EAD14FF01F
:103870004001204602F04EF840B184F84170032028
:10388000C3E735F8020BC0F30800E3E784F84170A2
:103890000020BAE77047000002F05AFE00210846F7
:1038A00002F0C4FE01A002F0FDFEFEE74861726472
:1038B0004661756C742100000148FEF717BB0000DB
:1038C0005C0900200148FEF773BB00005C09002082
:1038D00038B5406A002190F83D202B4B46F2A814E1
:1038E0001B68B3FBF4F3C3EBC30303EB8303009345
:1038F0003BB15B1E009303681B689B0505D5009BCD
:10390000F6E7036C43F020030364436B03B1996251
:10391000836B03B1996203681C6824F480641C60A3
:103920004185436B03B15963836B03B159630368EA
:103930001C6824F001041C6090F83D402023602C9A
:103940000BD0282434EA02020FD080F83D3080F8F2
:103950003E1000BFFEF744FC38BD80F83D3080F8D3
:103960003E100164FEF7C0FA38BD0268136843F0E8
:10397000010313600268136843F4806313600163FA
:1039800080F83D40E6E70000C00000200068416983
:10399000C943090601D400210161704770B504468E
:1039A00090F83D0094F83E10102901D0402906D12E
:1039B000222804D121680A6822F400620A602821C2
:1039C00031EA00024FF000054FF0200626D02168B2
:1039D0004968090505D4602803D084F83D6084F85F
:1039E0003E50256320684168090537D5416821F4B8
:1039F00000614160606B90F821203C49012A11D0A0
:103A00004163606BFDF7F0FF38B32068016821F077
:103A10000101016084F83D60606B1CE0256384F85F
:103A20003D10DFE7A06B4163A06BFDF7DDFFA0B1A8
:103A300020684169C943490605D40069616A087074
:103A4000606A401C60622068016821F00101016029
:103A500084F83D60A06B416B884710E094F83D10FE
:103A6000602910D04169C943490605D40069616ADB
:103A70000870606A401C60622046FEF7B1FB206C53
:103A8000C1071CD115E084F83D6025644169C94334
:103A9000490605D40069616A0870606A401C60626A
:103AA0002068016821F0010101602046FEF71CFA40
:103AB000E5E7810703D4410701D4000704D5206856
:103AC000416821F4E061416094F83D00216C4907B0
:103AD0000BD5282809D10648E062256384F83D60AB
:103AE00084F83E502046FEF741FC70BDD1380008F6
:103AF0000000FFFF01684A69D24352050FD46FF4FA
:103B000080624A61002140F8301F20224273817395
:103B1000026942F004020261017301207047002033
:103B2000704710B5C26A438D0168042B06D0438DDF
:103B3000032B08D0438D022B1DD012E04A6822F4DB
:103B400080624A600CE04B6823F480634B60042A77
:103B500006D0022A04D001680A6822F480620A6052
:103B600001680969426A1170416A491C4162418DCC
:103B7000491E418510BD012A34D0102A32D0042AB2
:103B800034D0022A32D00B6843F400730B60016812
:103B90000969436A1970416A491C4162438D5B1E81
:103BA000438503681B690B70416A491C4162418D62
:103BB000491E418501684B6823F440734B60202106
:103BC00080F83D1090F83E300021402B80F83E10E8
:103BD00010D0082A02D0202A00D012210163FEF75B
:103BE000C6FB10BD0B6823F48063CFE70B6843F47A
:103BF0008063CBE70163FEF77BFD10BD38B590F81D
:103C00003D10222910D1C36A418D03290DD90168C5
:103C10000969426A1170416A491C4162418D491E1D
:103C20004185418D032906D038BDC26A022A02D0DF
:103C3000012906D029B10068416821F48061416002
:103C400038BD2A4A46F2A81400211268B2FBF4F2E9
:103C500002EB8202009202682024009D6D1E0095F6
:103C600026D01568AD05F8D4156825F48065156073
:103C70000268556825F4E065556002681269456A76
:103C80002A70426A521C4262428D521E428580F85E
:103C90003D4090F83E2080F83E10402A21D0082B6D
:103CA00002D0202B00D012210163FEF760FB38BD4B
:103CB000036C43F020030364536823F4E063536010
:103CC00002681269436A1A70426A521C4262428D4B
:103CD000521E428580F83D4080F83E10FEF780FA83
:103CE00038BD0163FEF704FD38BD0000C0000020B0
:103CF0002DE9F84F0446C06A1E4693460D462168DA
:103D00000A6842F480620A60082807D0012805D0BA
:103D100010F5803F02D0206B112804D12068016883
:103D200041F4807101604FF001195B460022494661
:103D30002046009600F01EFC4FF4007840B1206849
:103D40000068C00501D5C4F840800320BDE8F88FA5
:103D50002069DFF884A0B0F5804F0FD006202168DD
:103D600000EAD51747F0F000086133465A460AF1D9
:103D70000601204600F046FC58BB03E0E8B240F0E4
:103D800001001CE02168E8B2086133465A465146FA
:103D9000204600F037FCE0B9206841698169009154
:103DA000016841F4807101605B460022494620466B
:103DB000009600F0DFFB0028C1D147F0F100216838
:103DC000086133465A465146204600F01BFC002845
:103DD000BCD00120BAE7000002000100F8B504469B
:103DE000C06A1E460D461746082807D0012805D090
:103DF00010F5803F02D0206B122804D120680168A2
:103E000041F480710160134600224FF001112046F9
:103E1000009600F0AFFB40B120680068C00502D5F5
:103E20004FF4007020640320F8BD2069B0F5804F86
:103E30000ED00620216800EAD51040F0F00008619D
:103E400033463A460B49204600F0DCFB78B902E0E5
:103E500005F0FE0000E0E8B221680861054933463C
:103E60003A46891F204600F0CDFB0028DCD0012017
:103E7000F8BD00000800010010B5C26A90F83D10BE
:103E800021290BD1418D51B1416A02680978116134
:103E9000416A491C4162418D491E418510BD202364
:103EA0000021082A13D0202A11D012F5803F0ED00D
:103EB0000268546824F4E06454601122026380F8BC
:103EC0003E1080F83D3000BFFEF752FA10BD026888
:103ED000546824F4E06454600268146844F4007484
:103EE0001460016380F83D3090F83E2080F83E1069
:103EF000402AE9D1FEF7FDFB10BD000010B590F897
:103F00003D1090F83E30C26A048DB4B1212903D02F
:103F1000402B11D122290FD1418DE1B390F83E10F1
:103F2000402942D0416A026809781161416A491CFE
:103F30004162418D491E418510BD2129E8D12023D0
:103F40000021082A13D0202A11D012F5803F0ED06C
:103F50000268546824F4E06454601122026380F81B
:103F60003E1080F83D3000BFFEF702FA10BD026837
:103F7000546824F4E06454600268146844F40074E3
:103F80001460016380F83D3090F83E2080F83E10C8
:103F9000402AE9D100E002E0FEF7ABFB10BD00686B
:103FA000416821F48061416010BDBDE8104000F01F
:103FB000F3B8000078B590F83E50C26A046B90F8F0
:103FC0003D6000230168222E73D1066D0EB9402D8D
:103FD0006FD0056D1DB90569B5F5404F1BD0458DF6
:103FE00095B3468D484D012E20D0448D022C4DD0E6
:103FF0000C6844F480640C6001684C68240579D531
:10400000AA4273D0012A71D0082A6FD0102A6DD02D
:10401000202A6BD06EE04A698A6900920A6842F4ED
:1040200080720A60016D491C016578BDAA4214D1F5
:104030000A6822F480620A6001684A68120504D5A1
:104040000A6822F4806217E0FFE74A698A690092F1
:104050000A6842F400720A6050E0082A10D0202A50
:104060000ED0122C0AD0042A03D0022A01D0102A22
:10407000E6D10A6842F480620A603BE0012ADFD0A0
:104080000A6822F480620A600168DEE7042A11D01F
:10409000022A0FD0102A0DD00C6844F400640C6082
:1040A00001684C698C6900940C6824F480640C608D
:1040B00008E025E00C6844F480640C6001684C69F9
:1040C0008969009101684C68240517D5AA4207D078
:1040D000012A05D0082A03D0102A01D0202A0DD1A8
:1040E0004A6842F480524A6008E0FFE74A6842F4B6
:1040F00080524A6001684A6989690091036578BD08
:1041000048698869009078BD0000FFFF90F83E1074
:10411000402910D00169B1F5804F19D0016DA9B3C4
:10412000016D012910D1416C5FF0F10201F4407181
:1041300042EAD11106E0016D0029416C05D0C9B2F7
:1041400041F0010100680161704701F0FE01F9E7EB
:1041500090F83D102129416C09D0C9B241F001010C
:1041600002681161416B29B1896A49B902E001F025
:10417000FE01F5E7816B0029E6D0896A0029E3D0CA
:104180000068416841F4006141607047FFE7416C9D
:10419000F02201F44071CBE710B590F83D10026DAC
:1041A0004AB1026D012A14D0026D022A16D0BDE870
:1041B0001040FFF7EBBBC16C0129816C02D0C1F349
:1041C000072108E00268C9B21161016D891C01650F
:1041D00010BD816CC9B20268116123E022291CD094
:1041E000428D0AB1212920D0428D002AF0D1212907
:1041F000EED101684A6822F4E0624A6001680A6808
:1042000042F400720A6000210163202280F83D2000
:1042100080F83E10FEF76DFA10BD01680A6842F49E
:1042200080720A60016D491CD1E7416A0268097811
:104230001161416A491C4162418D491E418510BD91
:104240002DE9F843044600680D46DDE9089701684A
:104250009846164641F4807101604B4600224FF0AB
:1042600001112046009700F085F948B120680068E8
:10427000C00502D54FF4007020640320BDE8F88328
:10428000216805F0FE0008613B464A461549204674
:1042900000F0B8F988B920684169806900903A4611
:1042A0004946204600F044FA48B1206C042804D165
:1042B0002068016841F4007101600120DEE7F5B279
:1042C000B8F1010F09D02168300A08613A46494621
:1042D000204600F02DFA0028E7D120680561002073
:1042E000CCE700000200010038B50C4690F83D20F4
:1042F00000212825954302680B4605D05169916934
:10430000009180F83C3038BD556825F480655560D3
:10431000E243540700D50121120601D5828900E04D
:10432000028B80F83C3092B2FDF7DFFD38BD000013
:104330002DE9F04190F83D300446C26A0021202664
:104340001E4F00686FF48065082A01D0202A01D131
:10435000282B04D0212B17D04561BDE8F081E762FE
:10436000426822F4E0624260206845612068026889
:1043700022F480620260216384F83D6084F83E107C
:104380002046FDF7F3FFE8E7E7622122226384F885
:104390003D6084F83E10416821F4E061416020688E
:1043A00045612068016821F4806101602046FFF7C3
:1043B000EDFA2046FEF775FACFE700000000FFFF98
:1043C000F8B590F83D6004460068416821F4E0616A
:1043D00041602068002541690091016841F00101B8
:1043E00001602068016821F48061016020684168F3
:1043F000090520D5474F222E48D02A2E46D0616B82
:10440000096849686185618D19B1216C41F0040129
:104410002164416821F400614160606BFDF730FB6D
:10442000012808D0606B4763606BFDF7DDFA10B1BF
:10443000606B416B8847608D08B320684169C94350
:10444000490708D40069616A0870606A401C6062AC
:10445000608D401E608520684169C943490608D4C3
:104460000069616A0870606A401C6062608D401E6D
:104470006085608D18B1206C40F004002064206CD1
:1044800000B32046BDE8F840FFF788BAA16B096881
:1044900049686185618D19B1216C41F00401216485
:1044A000416821F400614160A06BFDF7E9FA012841
:1044B000C1D0A06B4763A06BFDF796FA0028BAD075
:1044C000A06BB6E72A2E06D12563282084F83D008C
:1044D0002046FEF7E5F994F83D10202028290DD05C
:1044E000216B222901D0222E07D1256384F83D00BB
:1044F00084F83E502046FEF7D3F9F8BD0649E16244
:10450000256384F83D0084F83E502046FDF72EFFD9
:10451000F8BD0000D13800080000FFFF70B5164656
:104520000D4604461EE02046FFF7E4FA08B10120DC
:1045300070BD681C16D0FDF7D1FC801BA84200D8C6
:1045400085B920684069C04340070BD5002044F876
:10455000300F20216173A073216941F02001216196
:104560002073E4E720684069C0434007DBD40020A3
:1045700070BD00002DE9F047984617460D460446E9
:10458000C1F30746DDF820902AE000BFB8F1FF3FF5
:1045900026D0FDF7A3FCA0EB0901414502D8B8F1F4
:1045A000000F1DD12068012E16D0806925EA000079
:1045B0000004000C12D00020B84211D1002044F8B1
:1045C000300F20216173A073216941F02001216126
:1045D00020730120BDE8F0874069E7E70120EBE7A1
:1045E0002068012E0AD0806925EA00000004000C32
:1045F00006D00020B842C9D00020EBE74069F3E7BD
:104600000120F7E72DE9F047984616460D46044687
:104610004FF000094FF0200AC1F3074723E020685C
:104620004069C043400515D42068016841F4007119
:10463000016021686FF480604861C4F8309084F8AC
:104640003DA084F83E90216C41F00401216484F87F
:104650003C9021E0701C06D0FDF740FCA0EB080068
:10466000B04203D816B1012F1FD021E02068012FDE
:1046700015D0806925EA00000004000C18D000BFA6
:1046800044F8309F84F80DA084F80E90216941F021
:104690002001216184F80C900120BDE8F087406979
:1046A00025EA00000004000CEAD12068406901E01E
:1046B0002068806925EA00000004000CAFD1ECE717
:1046C0002DE9F041002590460E460446202728E0BB
:1046D0004069C043C0060CD454F8301B6FF0100082
:1046E000486144F810596777A577206A20622577DA
:1046F00014E0FDF7F3FBA0EB0800B04200D886B948
:1047000020684069C04340060BD544F8305F6773AA
:10471000A573206940F02000206125730120BDE8C9
:10472000F08120684169C9434906D1D40020F6E7E9
:1047300070B516460D4604461EE02046FFF7DAF92E
:1047400008B1012070BD681C16D0FDF7C7FB801BA7
:10475000A84200D885B920684069C04300060BD53F
:10476000002044F8300F20216173A073216941F0CB
:10477000200121612073E4E720684069C0430006FE
:10478000DBD4002070BD8178491CCAB20021827040
:104790003C2A03D381704278521C427042783C2AF2
:1047A00003D341700278521C02700278182A03D396
:1047B0000170C178491CC170704700002DE9FF47A6
:1047C0004FF000094D4643204C462E468DF80C0014
:1047D0004F464FF06408012303AAD0212748CDF8A3
:1047E0000080FDF7EFFE062301AAD0212348CDF873
:1047F0000080FDF7BFFDBDF8040040BA00B20444DC
:10480000BDF8060040BA00B20544BDF8080040BA41
:1048100000B206440520FDF747FA7F1CC82FDADBFB
:10482000204604F071FA164F394604F0ABF9DFF870
:104830005480414604F0A6F9134C2060284604F049
:1048400063FA394604F09EF9414604F09BF9606032
:10485000304604F059FA394604F094F9414604F020
:1048600091F9A060094801210170C0F80890C0F8D2
:104870000C90C0F81090BDE8FF8700005C09002094
:1048800000004843000003432C05002004000020E2
:1048900010B58AB000208DF804002DA064240068B3
:1048A0000290022302AAD02100942A48FDF78AFE32
:1048B0006420FDF7F9F928A002230068039003AAF9
:1048C000D02100942348FDF77DFE24A00223006838
:1048D000049004AAD02100941E48FDF773FE20A086
:1048E000022300680094059005AAD0211948FDF71D
:1048F00069FE1CA002230068069006AAD02100943D
:104900001448FDF75FFE18A002230068079007AA6D
:10491000D02100940F48FDF755FE75208DF820003A
:10492000012308AAD0210B480094FDF74BFE012378
:1049300001AAD02107480094FDF71CFD9DF8040052
:10494000682802D001200AB010BD0020FBE700005B
:104950006B8000005C0900206B000000190400005F
:104960001A0300001C0000001B0000002DE9F04F9E
:1049700087B00446FDF7B2FA7E4D07466868381ADC
:1049800004F0DAF97C4904F0FDF806467B487C49DE
:104990006F60864201DA064602E08E4200DD794E03
:1049A0003B208DF814006425012305AAD021764808
:1049B0000095FDF707FE0E2301AAD021724800954D
:1049C000FDF7D8FCBDF80610BDF8040049BA0FB2D7
:1049D000BDF8081040BA49BA0DB2BDF80A1000B2CD
:1049E00049BA0FFA81FABDF80C1049BA0FFA81F9E9
:1049F000BDF80E1049BA09B20091BDF8101049BABD
:104A00000FFA81FB04F080F96FF00D0104F015FC42
:104A10002060384604F078F96FF00D0104F00DFCC9
:104A200080466060284604F06FF96FF00D0104F0D5
:104A300004FC0746A060504604F066F9534904F0B0
:104A4000A1F8534904F02AF8A061484604F05CF943
:104A5000DFF84091494604F095F84F4D296804F07D
:104A600043FBE060009804F04FF9494604F08AF8EF
:104A7000696804F039FB2061584604F045F949465D
:104A800004F080F8A96804F02FFB606139464046C5
:104A900000F0DEFF414F394604F096F98046A068E9
:104AA000014604F091F905466068014604F08CF96E
:104AB000294603F0F3FF01F035FD0146206880F040
:104AC000004000F0C5FF394604F07EF90746314644
:104AD000E06804F079F9274DA96803F0DFFF81460B
:104AE000A8603146206904F06FF9E96803F0D6FF49
:104AF0008246E8603146606904F066F9296903F08E
:104B0000CDFF064628614146484604F0EDFADFF83D
:104B1000909020F00041494501DDC5F808803946F4
:104B2000504604F0E1FA20F00041494500DDEF6015
:104B3000DFF870904046494604F046F9DFF8688097
:104B400082464146A86804F03FF9514603F0A6FFAB
:104B500020624946384604F037F907464146E8687E
:104B600004F032F9394603F099FF6662E06107B05C
:104B7000BDE8F08F0400002000007A446F12833AF1
:104B8000CDCC4C3D0AD7A33B5C0900200000AA43D2
:104B9000B81E1242000003432C050020E62E654299
:104BA0000000F04100D7A33C48E17A3F094808B52E
:104BB000416941F0010141614069002200F00100BA
:104BC000009005210F20FDF7FFFEBDE808400F20F3
:104BD000FDF7ECBE0010024030B5B1B000252A95BB
:104BE0002AA82B9501F0C1F8934C0028A0657DD030
:104BF0002C952CA82D9501F0B8F8E065002876D00A
:104C00002E9501212EA82F9501F012F9206600287B
:104C10006ED01C2289496846FBF74CFD002168468E
:104C200001F080F96063002876D00022082102207C
:104C300003F074F9A06400286FD00022282104201A
:104C400003F06CF96064002868D000220421012080
:104C500003F064F96065002875D00421002208463D
:104C600003F05CF9E06400286ED0002220210420CB
:104C700003F054F92065002867D070491C221C31CC
:104C800007A8FBF717FD002107A801F04BF92064E6
:104C900000286FD069491C2238310EA8FBF70AFDA5
:104CA00000210EA801F03EF9E062002877D06349A8
:104CB0001C22543115A8FBF7FDFC002115A801F0BA
:104CC00031F9A06300286BD05C491C2270311CA80C
:104CD000FBF7F0FC00211CA801F024F92063002858
:104CE00073D056491C228C3123A802E017E020E043
:104CF0002CE0FBF7DFFC002123A801F013F9E063AF
:104D0000002877D101F024FC0021084601F08EFC38
:104D10004BA001F0C7FCFEE722E02CE035E001F0FB
:104D200017FC0021084601F081FC4BA001F0BAFC01
:104D3000FEE701F00DFC0021084601F077FC4AA0D7
:104D400001F0B0FCFEE72CE035E03FE001F000FCB4
:104D50000021084601F06AFC47A001F0A3FCFEE731
:104D600001F0F6FB0021084601F060FC47A001F0CD
:104D700099FCFEE734E001F0EBFB0021084601F06E
:104D800055FC47A001F08EFCFEE701F0E1FB00219D
:104D9000084601F04BFC48A001F084FCFEE72AE045
:104DA00033E001F0D5FB0021084601F03FFC48A0AC
:104DB00001F078FCFEE701F0CBFB0021084601F092
:104DC00035FC49A001F06EFCFEE728E001F0C0FBD5
:104DD0000021084601F02AFC48A001F063FCFEE730
:104DE00001F0B6FB0021084601F020FC48A001F0CC
:104DF00059FCFEE71DE001F0ABFB0021084601F085
:104E000015FC48A001F04EFCFEE701F0A1FB0021DB
:104E1000084601F00BFC48A001F044FCFEE701F05D
:104E200097FB0021084601F001FC47A001F03AFC85
:104E3000FEE731B030BD000040000020F8940008CB
:104E40007461736B20626C756520746F6F74682079
:104E50004661696C000000004D7574657820493228
:104E600043204661696C00004D757465782055419A
:104E70005254204661696C0073656D2064697370DB
:104E80006C6179204661696C000000007461736B8D
:104E9000206469706C6179204661696C00000000D3
:104EA00071756575652054696D65757064617465AB
:104EB000204661696C000000717565756520736539
:104EC0006E736F722064617461204661696C0000CA
:104ED0004D717565756520737465702064617461CA
:104EE000204661696C0000007175657565206D650F
:104EF0006E75206D7367204661696C00717565750C
:104F00006520627420636D64204661696C00000056
:104F10007461736B20687720696E697420466169DB
:104F20006C0000007461736B2074696D65206B65A3
:104F30006570204661696C007461736B206D656EED
:104F400075204661696C00007461736B2073656E37
:104F5000736F72204661696C00000000F0B585B087
:104F60000025274801950395816941F02001816161
:104F7000816901F020010491816941F0040181619E
:104F8000816901F004010491816941F008018161A6
:104F900080691C4F00F0080004904FF480600124E9
:104FA0000090694602943846FCF79EFE01AA02264C
:104FB000009482E8700069463846FCF795FE0122AD
:104FC00011463846FCF785FFCDE900640E4FCDE968
:104FD000025669463846FCF787FE01220221384610
:104FE000FCF777FF04208DE8710069463846FCF72E
:104FF0007BFE012204213846FCF76BFF05B0F0BDB3
:1050000000100240000C0140000801400D4810B59E
:105010000B4901600C49416000214FF480428160DE
:10502000C0E9031241618161C1610162FDF7DAF8F3
:10503000002803D0BDE81040FCF7A6BC10BD00005E
:10504000005400405C090020801A060010B586B0AC
:1050500000241748009401940294039404944FF0A0
:1050600080410594016041F61F41C0E9011442F2FC
:105070000F71C0E903148461FDF79AFF08B1FCF7D2
:1050800083FC4FF48050009069460948FEF706F80B
:1050900008B1FCF779FC049404A905480594FDF7D0
:1050A00053FF002801D0FCF76FFC06B010BD0000D4
:1050B000B009002030B58BB024216846FBF74EFBC9
:1050C00000241B4D099419480A94C5E900044FF6C1
:1050D000FF70C5E902402C61AC610320CDE90004FA
:1050E0000120CDE902040A210491CDE90540CDE972
:1050F000074169462846FEF73FF808B1FCF744FC33
:10510000099409A90A480A94FDF71EFF08B1FCF7A3
:105110003BFC3C210648FEF7ADF800B1FEE72968EC
:105120004FF4004048620BB030BD00000004004066
:10513000F80900200C4810B50A4901604FF4E1312C
:105140004160002181600C22C160C0E904128161CC
:10515000C161FEF7B5FA002803D0BDE81040FCF7A6
:1051600013BC10BD00380140400A0020FEE7FEE7F6
:10517000F0B54E4C0027214662784D4DC97889B074
:10518000052A49D2DFE802F003070A151E00AA2803
:105190000DD101200AE0A070022007E0E070401E5F
:1051A00027717F2801D8032000E00020607009B03B
:1051B000F0BD2279A854521CD0B220718842F6D397
:1051C0000420F3E706463A4AA078FCF7AAFBB0426F
:1051D0006AD1A078374E062866D2DFE800F0650372
:1051E00016652F37E07807285ED3FCF7D5FB2988B2
:1051F00049BAC180A9780171E978C1702979017033
:1052000069794170A979817014E0E078042804D0AC
:10521000FCF7BCFBFCF760FB46E02868264D0090DD
:105220000021286802F0CEFE00231A46694628684D
:1052300002F00CFF306800F01BFE35E0E078022839
:1052400032D36978287800F077F82DE0FCF7A4FBDA
:105250000546FCF79BFB0246AA208DF800000523BB
:105260008DF801300A218DF8021028788DF803009E
:1052700068788DF80400A8788DF80500CDF8062030
:1052800018460DF10302FCF74CFB8DF80D0055207C
:105290008DF80E0000F088FB64230F226946074852
:1052A000FEF7A8FA00F088FB677080E7180000207E
:1052B00038060020A000002094000020400A0020B2
:1052C00070B500264FF480611948FCF7FDFD194CBC
:1052D00005462078854204D02570FCF7FFFD60610B
:1052E00005E0FCF7FBFD6169401A142801D200209B
:1052F00070BD607855EA000102D0012D06D015E09E
:1053000001206070FCF7EAFDA0610FE001280DD1DB
:1053100000206070FCF7E2FDA169401AB0F57A7FC9
:1053200001D9022602E0322800D90126304670BD9C
:10533000000C014024000020014A9070D170704799
:10534000400000202DE9F041044680680D46DFF85A
:10535000A880014603F038FD07466068014603F067
:1053600033FD06462068014603F02EFD314603F06A
:1053700095FB394603F092FB01F0D4F84FF07D51D4
:1053800003F022FD06466FF001014446D8F8040000
:1053900003F053FF314603F081FB6060E16803F0E6
:1053A000DFFD01D26068E0602169606803F0D8FC2D
:1053B00001D260682061D4E9030103F06FFB4FF074
:1053C000FF3103F03AFF0D4903F068FB0746FCF795
:1053D00085FD06463946606803F0C2FD0AD2A06822
:1053E000301AC82806D92868401C2860A660606862
:1053F000E0602061BDE8F08124000020CDCCCC3DF0
:1054000010B5502080F31188BFF34F8FBFF36F8F1B
:1054100003F066F918B104494FF08050086000208D
:1054200080F3118810BD000004ED00E030B58FB0AE
:1054300028216846FBF792F914210AA8FBF78EF998
:1054400001210804CDE900100024029402250491F2
:10545000CDE907504FF4E01009906846FDF7E2FBF4
:1054600008B172B6FEE70F20CDE90A054FF480605F
:10547000CDE90C4002210AA80E94FDF7D7FA0028C6
:1054800001D072B6FEE70FB030BD70470148FDF79E
:1054900039BF0000CC0A00200148FDF733BF0000EF
:1054A000B0090020F0B50268194B1A4C1A4D4FF0A4
:1054B0008047984205D0B84203D0A04201D0A8420C
:1054C00003D122F070064A683243984205D0B842B0
:1054D00003D0A04201D0A84203D122F44074CA688C
:1054E00022434C6922F08002224302608A68C26231
:1054F0000A688262984201D1096901630121416110
:105500000169C90703D0016921F001010161F0BD02
:10551000002C0140000400400008004010B501F0DC
:105520001F030121046A99408C430462016A9A4076
:105530001143016210BD10B5846842EA032224F4CD
:105540007F440A432243826010BD826822F07002C9
:105550000A4342F007018160704710B5036A046A8C
:1055600024F001040462846924F0F00444EA021483
:1055700023F00A020A438461026210BD10B5036A77
:10558000046A24F010040462846923F0A00324F464
:10559000704444EA023243EA01118261016210BDA3
:1055A00010B5406A0021C185C184FDF751FF10BDCF
:1055B00070B5446A2068406994F84110C0F3C01087
:1055C0000025212904D118B1E584204600F08EF889
:1055D0002068406994F84210C0F38010222904D159
:1055E00018B1E585204600F05AF8606C40F01000D4
:1055F00060642046FDF72CFF70BD10B50146406A7F
:10560000096809684FF0000289062ED4C285016836
:105610000C3151E8003F23F4807341E80034002C42
:10562000F5D10168143151E8003F23F0010341E84E
:105630000034002CF5D10168143151E8003F23F00B
:10564000400341E80034002CF5D1202180F84210BD
:10565000016B012909D101680C3151E8003F23F0A9
:10566000100341E80034002CF5D14263016B01299D
:1056700002D0FEF7BDF810BD818DFDF7E8FE10BD2C
:1056800010B5406A01214163016B012902D0FEF788
:10569000B0F810BD818D4908FDF7D9FE10BD016835
:1056A0000C3151E8002F22F4907241E80023002BC6
:1056B000F5D10168143151E8002F22F0010241E8D0
:1056C0000023002BF5D1016B012909D101680C31B0
:1056D00051E8002F22F0100241E80023002BF5D101
:1056E000202180F8421000210163704701680C31CD
:1056F00051E8002F22F0C00241E80023002BF5D131
:10570000202180F84110704708B590F842102229F6
:1057100001D0022008BD82684FF480539A4201D123
:10572000016921B1816A9A421BD04AB10AE002683C
:10573000816A5268C2F308020A80816A891C08E003
:10574000026972B10268526802F07F020A70816ACF
:10575000491C8162C18D491E0904090CC18503D011
:105760001BE002685268F1E70168CA6822F0200273
:10577000CA600168CA6822F48072CA6001684A6916
:1057800022F001024A61202180F842100021416389
:10579000026B012A03D0FEF72BF8002008BD01633D
:1057A00001680C3151E8002F22F0100241E800237B
:1057B000002BF5D101680A68D20602D50A6849684B
:1057C0000091818DFDF743FEE7E7000070B50446C8
:1057D00000680169E26821F44051114301612169C7
:1057E000A0680843616908432168CA6841F20C63F4
:1057F0009A430243CA6020684169A26921F440715A
:10580000114341611E492068884202D1FDF7D4F955
:1058100001E0FDF7C1F900EBC00101EB0012606887
:1058200064218000B2FBF0F3B3FBF1F36FF01806D4
:105830007343B2FBF0F5B2FBF0F605EB83053223C0
:1058400003EB0515B5FBF1F5B6FBF1F605F0F00538
:1058500005EB0615B2FBF0F6B2FBF0F0B0FBF1F091
:105860006FF01802504306EB800003EB0010B0FB12
:10587000F1F0216800F00F002844886070BD00003E
:105880000038014038B58162044682850020134605
:105890006064222284F84220E56B1B4AAA62E56B11
:1058A0001A4AEA62E56B1A4A2A63E26B50630A46B7
:1058B0002168E06B091DFCF7BFF9206801684068AA
:1058C0000090206948B120680C3050E8001F41F476
:1058D000807140E80012002AF5D12068143050E8A9
:1058E000001F41F0010140E80012002AF5D12068B4
:1058F000143050E8001F41F0400140E80012002A37
:10590000F5D1002038BD0000FB5500088156000885
:10591000B15500082DE9F843984617460D46044650
:10592000089E24E0701C22D0FCF7D8FAA0EB0800F7
:10593000B0421AD8CEB12068C168490717D5802D6A
:1059400015D0402D13D00168C94309070FD4016851
:105950000025406800902046FFF7A1FE0820606403
:1059600084F840500120BDE8F8830320FBE720685D
:10597000006835EA000004D00020B842D2D00020F0
:10598000F1E70120F9E70000064810B5006800685B
:10599000C043C00601D4FBF739FFBDE81040014801
:1059A000FDF758BD400A002002484FF0FF31006863
:1059B00000F00CBA9C0000200148006800F0DEB93D
:1059C0009C000020FEE7490050EAC12018BF0420D7
:1059D0004A0D18BF40F0010040F2FF72B2EB515F78
:1059E00008BF40F00200012808BF052070474100B1
:1059F000080218BF04200A0E18BF40F001004FF043
:105A00007F4232EA010108BF40F00200012808BFCE
:105A1000052070470907090E002804DB00F1E0208B
:105A200080F80014704700F00F0000F1E02080F8CB
:105A3000141D704703F032B86FF05E01080703F0E1
:105A4000FCBB30380A2801D2012070470020704783
:105A50002DE9F0474FF0684202EB40030C46054643
:105A6000B3F1654F3CBF02EB4102B2F1654F7CD20E
:105A7000C0F3C753C1F3C7529A1A1B2A06DD10F0B0
:105A8000004F14BF76487748BDE8F08712F11A0F2F
:105A900017DA11F0004F06D010F0004F0CBF72481B
:105AA0007248BDE8F0872146284603F06BF80446AB
:105AB000FFF79DFF042808BFFFF7BEFF2046BDE8A3
:105AC000F0874200B2EB410F25D910F0004F19BF0B
:105AD000674F684E684F694E224685F00044154670
